S018000052544F535F325F53454D4150484F52452E7372656330
S11300000C942A000C9447000C9447000C9447006D
S11300100C9447000C9447000C9447000C94D204B1
S11300200C9447000C9447000C9447000C94470030
S11300300C9447000C9447000C9447000C94470020
S11300400C9447000C9447000C9447000C94470010
S11300500C94470011241FBECFE5D8E0DEBFCDBF0E
S113006010E0A0E6B0E0E2E5F7E202C005900D92F0
S1130070AA36B107D9F714E0AAE6B0E001C01D9290
S1130080A832B107E1F70E945D090C94A7130C9400
S11300900000442341F46823792381E0611571054C
S11300A051F480E008959B012823392381E06217ED
S11300B0730709F080E00895CF93DF938BE090E01D
S11300C00E94F201EC01009731F0FC0111921192AF
S11300D0CF010E94CB028C2F9D2FDF91CF910895E9
S11300E0AF92BF92CF92DF92EF92FF920F931F9342
S11300F0CF93DF935C016B01E42EF22E0E94F30C8C
S1130100F501C081D181CE01B6014F2D0E94490075
S1130110882351F0EE2001F1C094D094CC22DD224A
S1130120F501D182C08218C001151105A9F0EE2095
S113013019F460E070E002C060E071E0F1107460F6
S11301406C297D29C5010296A8010E94990F0E947D
S1130150D10D882339F404C00E94D10DCE0121C0F1
S11301600E941C040E941F11EC0191FD18C00FB6DF
S1130170F8940F92F501C081D181CE01B6014F2DC3
S11301800E944900882349F0EE2039F0C094D094AD
S1130190CC22DD22F501D182C0820F900FBECE01A8
S11301A09070DF91CF911F910F91FF90EF90DF90AE
S11301B0CF90BF90AF900895FC010FB6F8940F92C2
S11301C08081918160957095682379237183608320
S11301D00F900FBE0895FC01808191810895AF9224
S11301E0BF92CF92DF92EF92FF920F931F93CF9320
S11301F0DF938C01EB010F2EF5E0CF2EDD24F02DE3
S1130200C80ED91E0E94F30CD8011796ED91FC91EB
S113021018978D919C9111978C2B9D2B11969C93E3
S11302208E93CE16DF06C1F1AA24BB24FF24F394D7
S1130230EE2401C0FE01C281D38180819181BC0181
S113024060709C01307092FD0BC0D8018D919C911F
S11302501197822393234F2D009769F44E2D0BC0E1
S1130260D8018D919C911197822393234F2D2817A8
S1130270390709F04E2D442359F070FF02C0A22A19
S1130280B32AD8016D917C917260CF010E94FD0F59
S1130290CC16DD0679F602C0AA24BB24C5018095DC
S11302A09095F801A080B180A822B922B182A082E1
S11302B00E94D10DD8018C9111969C911197DF91D8
S11302C0CF911F910F91FF90EF90DF90CF90BF904F
S11302D0AF900895AF92BF92CF92DF92EF92FF92C8
S11302E00F931F93CF93DF936C01EB017A015901B4
S11302F00E94F30CF60100811181C601BE010E9427
S1130300EF00C02BD12BC7018C239D238E159F0595
S113031051F480959095F6012081318182239323B5
S11303209183808312C0A114B10461F0B701756098
S1130330C6010296A5010E94990F0E94D10D88233F
S113034049F406C0F601C081D1810E94D10D1CC0C0
S11303500E941C040E941F1191FD14C00FB6F89452
S11303600F92F601808191819701282339232E155C
S11303703F0531F420953095282339233183208398
S11303800F900FBEEC01D0708C2F9D2FDF91CF9179
S11303901F910F91FF90EF90DF90CF90BF90AF909F
S11303A00895CF93DF93EC010E94F30C8A81882394
S11303B049F08F81988560E072E00E94FD0F8A8188
S11303C08823B9F7CE010E9492020E94D10DDF91D9
S11303D0CF910895BA010E94EF000895BA010E94D6
S11303E0DC0008950F931F93CF93DF93EC010E94D9
S11303F0F30C80916A008823F9F484E790E09093E9
S11304006C0080936B0010926E0010926D008FE16F
S113041093E09093720080937100E1E7F0E0129210
S113042012929093770080937600F0937500E09396
S1130430740081E080936A00209709F462C09E01F1
S11304402C5F3F4F239683E0CE31D80708F05CC081
S1130450E0916B00F0916C00ABE6B0E002C0DF010C
S1130460FC01828193818217930720F4808191811A
S11304700097A9F7C0E0EF36FC0709F448C08D9156
S11304809C9111978C010C5F1F4F80819181119673
S11304909C938E9382819381821B930B8930910567
S11304A018F1AF01420F531FDA0113969C938E93F8
S11304B012973383228312962D913C9113976BE606
S11304C070E001C0BD01EB01A881B98112968D9144
S11304D09C91139782179307A8F3EA01B983A88321
S11304E0DB0111965C934E938091600090916100C2
S11304F022813381821B930B90936100809360006F
S113050008C000E010E005C000E010E002C000E018
S113051010E00E94D10D802F912FDF91CF911F9178
S11305200F9108950F931F93CF93DF93EC010097DE
S113053039F18C01045010400E94F30CF80122811F
S11305403381ABE6B0E001C0DF01ED91FC9111977E
S11305508281938182179307B8F32497F983E88300
S11305600D931C9380916000909161002A813B81DE
S1130570820F931F90936100809360000E94D10DBD
S1130580DF91CF911F910F91089580916000909118
S1130590610008950895FC010396928381832FEFEF
S11305A03FEF3483238396838583908787831082E8
S11305B00895FC01118610860895CF93DF93FB0103
S11305C0DC011196CD91DC911297D383C2832C81E7
S11305D03D8135832483AC81BD8113967C936E93D6
S11305E012977D836C8391878087FC0120812F5F24
S11305F02083DF91CF910895CF93DF93AC01EB017A
S1130600288139818FEF2F3F380721F4FA01A78120
S1130610B0850DC0DA01139601C0DF011296ED9189
S1130620FC9113978081918128173907B0F71296AE
S1130630ED91FC911397FB83EA83D583C483BD8337
S1130640AC831396DC93CE93129759874887FA01AB
S113065080818F5F8083DF91CF910895CF93DF9363
S1130660FC01C085D185A281B381848195811596D1
S11306709C938E931497A481B58182819381139660
S11306809C938E931297A981BA81AE17BF0731F458
S113069014968D919C9115979A838983118610865F
S11306A0888181508883DF91CF91089521E1FC01F5
S11306B02083319732E23083FC013297A3E3A08395
S11306C0FC0133976083FC0134977083FC013597F8
S11306D01082FC01369760E86083FC013797108232
S11306E0FC01389762E06083FC01399763E0608322
S11306F0FC013A9764E06083FC013B9765E060830A
S1130700FC013C9766E06083FC013D9767E06083F1
S1130710FC013E9768E06083FC013F9769E06083D9
S1130720FC01709760E16083FC0171972083FC01F8
S1130730729722E12083FC01739723E12083FC015B
S1130740749724E12083FC01759725E12083FC0143
S1130750769726E12083FC01779727E12083FC012B
S1130760789728E12083FC01799729E12083FC0113
S11307707A9720E22083FC017B9721E22083FC010D
S11307807C973083FC017D9723E22083FC017E97D4
S11307904083FC017F975083FC01B09726E22083BD
S11307A0FC01B19727E22083FC01B29728E2208361
S11307B0FC01B39729E22083FC01B49720E3208352
S11307C0FC01B59721E32083869708951BBC8CE731
S11307D08ABD8BE08EBD89B7806189BFA0919703E4
S11307E0B0919803CD91CDBFDD91DEBFFF91EF9124
S11307F0DF91CF91BF91AF919F918F917F916F9135
S11308005F914F913F912F911F910F91FF90EF9026
S1130810DF90CF90BF90AF909F908F907F906F901C
S11308205F904F903F902F901F900F900FBE0F90AE
S1130830089581E0089508950F920FB6F8940F92E9
S11308401F9211242F923F924F925F926F927F9248
S11308508F929F92AF92BF92CF92DF92EF92FF92CC
S11308600F931F932F933F934F935F936F937F93B4
S11308708F939F93AF93BF93CF93DF93EF93FF93A4
S1130880A0919703B09198030DB60D920EB60D92F8
S11308900E94DC0EA0919703B0919803CD91CDBF37
S11308A0DD91DEBFFF91EF91DF91CF91BF91AF91C9
S11308B09F918F917F916F915F914F913F912F9174
S11308C01F910F91FF90EF90DF90CF90BF90AF906A
S11308D09F908F907F906F905F904F903F902F905C
S11308E01F900F900FBE0F9008950F920FB6F894BB
S11308F00F921F9211242F923F924F925F926F9208
S11309007F928F929F92AF92BF92CF92DF92EF929B
S1130910FF920F931F932F933F934F935F936F9384
S11309207F938F939F93AF93BF93CF93DF93EF9373
S1130930FF93A0919703B09198030DB60D920EB654
S11309400D920E94130D882311F00E94DC0EA091D9
S11309509703B0919803CD91CDBFDD91DEBFFF9198
S1130960EF91DF91CF91BF91AF919F918F917F9143
S11309706F915F914F913F912F911F910F91FF9034
S1130980EF90DF90CF90BF90AF909F908F907F902B
S11309906F905F904F903F902F901F900F900FBEDD
S11309A00F9008950E94750418950FB6F8940F924D
S11309B0FC01928D0F900FBE81E0911180E00895AB
S11309C0FC01448D4423C1F026813781240F311D5D
S11309D037832683A281B3812A173B0720F0208125
S11309E031813783268336812781862F972F632F82
S11309F0722F50E00E949E130895EF92FF920F937E
S1130A001F93CF938C010FB6F8940F92FC01C68DFF
S1130A101C16CCF48189882331F415C0F80181892E
S1130A20882341F410C00F2EF1E1EF2EFF24F02DA6
S1130A30E00EF11EC7010E94B20F882311F00E943C
S1130A407710C15059F78FEFF801868F0F900FBEC2
S1130A500FB6F8940F92F801C58D1C16C4F4808566
S1130A60882331F414C0F8018085882339F40FC039
S1130A70EE24FF246894E3F8E00EF11EC7010E94FF
S1130A80B20F882311F00E947710C15061F78FEFE5
S1130A90F801858F0F900FBECF911F910F91FF909A
S1130AA0EF9008950F931F93CF93DF93EC01142FCE
S1130AB00A8D4C8D442361F488819981009709F053
S1130AC042C08A819B810E94DE101B821A8242C02E
S1130AD01123B9F48C819D8150E00E949E132C8DCA
S1130AE08C819D81820F911D9D838C832A813B8102
S1130AF08217930750F1888199819D838C8380E0CC
S1130B0029C08E819F8150E00E949E134C8D50E03D
S1130B10509541955F4F8E819F81840F951F9F83D0
S1130B208E83288139818217930730F48A819B81CF
S1130B30840F951F9F838E83123049F4002349F05C
S1130B40015080E007C080E005C080E003C080E081
S1130B5001C080E00F5F0A8FDF91CF911F910F9149
S1130B600895CF93DF93EC010FB6F8940F92488168
S1130B7059812B8D30E0EC8DF0E02E9FC0012F9F2A
S1130B80900D3E9F900D1124840F951F9B838A83A3
S1130B901A8E5D834C83C9010197E89F9001E99FF8
S1130BA0300DF89F300D1124240F351F3F832E8301
S1130BB08FEF8D8F8E8F662361F48885882389F06B
S1130BC0CE0108960E94B20F882359F00E941C049B
S1130BD008C0CE0108960E94CB02CE0141960E9425
S1130BE0CB020F900FBE81E0DF91CF9108950F9358
S1130BF01F93CF93DF93082F162F662321F0689F4E
S1130C00C001112402C080E090E04F960E94F201DE
S1130C10EC01009771F0112319F49983888303C0C0
S1130C204F96998388830B8F1C8FCE0161E00E94BD
S1130C30B1058C2F9D2FDF91CF911F910F910895B6
S1130C408F929F92BF92CF92DF92EF92FF920F9377
S1130C501F93CF93DF9300D000D00F92CDB7DEB7B0
S1130C608C014B015D834C83E22EFF24BB24B3949F
S1130C70CC24DD246894C3F8C80ED91E0FB6F894AA
S1130C800F92F801928D838D981718F0F2E0EF1609
S1130C90D1F4C801B4014E2D0E945205F801918986
S1130CA0992349F0C80141960E94B20F882339F074
S1130CB00E941C0404C0882311F00E941C040F909D
S1130CC00FBE81E052C08C819D81009721F40F906A
S1130CD00FBE80E04AC0FF2029F4CE0101960E9495
S1130CE03710FB2C0F900FBE0E94F30C0FB6F89434
S1130CF00F92F801858D8F3F09F4158EF801868DCA
S1130D008F3F09F4168E0F900FBECE010196BE01DF
S1130D106C5F7F4F0E944210882309F50FB6F89448
S1130D200F92F801928D0F900FBEF801838D9817E2
S1130D3081F46C817D81C6010E94870FC8010E94E5
S1130D40FD040E94D10D882309F098CF0E941C0451
S1130D5095CFC8010E94FD040E94D10D8FCFC80118
S1130D600E94FD040E94D10D80E00F900F900F901F
S1130D700F900F90DF91CF911F910F91FF90EF9003
S1130D80DF90CF90BF909F908F900895CF93DF9383
S1130D90482F81E060E00E94F705EC01009761F0C4
S1130DA01B821A82198218821E8260E070E040E081
S1130DB050E020E00E9420068C2F9D2FDF91CF91E0
S1130DC00895EF92FF920F931F93CF938C017A01B2
S1130DD0FC01928D838D981710F02230F1F4F80104
S1130DE0C68DC801422F0E945205CF3F89F4F801F5
S1130DF081898823A1F0C80141960E94B20F8823FB
S1130E0081F0E114F10479F081E0F70180830CC0F2
S1130E10CF5FF801C68F81E007C080E005C081E0A4
S1130E2003C081E001C081E0CF911F910F91FF9039
S1130E30EF900895CF93DF93FC01EB01828D938DA6
S1130E408917B8F4968D8F5F828F9F3F71F48189E3
S1130E50882389F0CF0141960E94B20F882369F05C
S1130E60209769F081E088830BC09F5F968F81E0B3
S1130E7007C080E005C081E003C081E001C081E0DB
S1130E80DF91CF9108958F929F92AF92BF92CF92AC
S1130E90DF92EF92FF920F931F93CF93DF9300D0D3
S1130EA000D00F92CDB7DEB77C014B015D834C833C
S1130EB0C22E00E0DD24D3940F2EF1E1AF2EBB242B
S1130EC0F02DA80EB91E0FB6F8940F92F701128DEB
S1130ED0112399F1A680B780C701B4010E94E004F0
S1130EE0CC20C9F41150F701128F808191810097B1
S1130EF029F40E943711F70193838283F7018085D7
S1130F008823B9F0C70108960E94B20F882389F09C
S1130F100E941C040EC0F701B782A682818988232F
S1130F2041F0C70141960E94B20F882311F00E943C
S1130F301C040F900FBE81E061C08C819D810097DD
S1130F4021F40F900FBE80E059C0002329F4CE0194
S1130F5001960E9437100D2D0F900FBE0E94F30CC6
S1130F600FB6F8940F92F701858D8F3F09F4158E13
S1130F70F701868D8F3F09F4168E0F900FBECE01B8
S1130F800196BE016C5F7F4F0E944210882351F589
S1130F90C7010E94D5048823F9F0F701808191816B
S1130FA0009751F40FB6F8940F92F7018281938160
S1130FB00E9480100F900FBE6C817D81C5010E943C
S1130FC0870FC7010E94FD040E94D10D882309F0F8
S1130FD07ACF0E941C0477CFC7010E94FD040E94AF
S1130FE0D10D71CFC7010E94FD040E94D10DC7012C
S1130FF00E94D504882309F466CF80E00F900F90F7
S11310000F900F900F90DF91CF911F910F91FF9050
S1131010EF90DF90CF90BF90AF909F908F90089506
S1131020EF92FF920F931F93CF93DF938C017A017A
S1131030FC01C28DCC23E9F0D58D0E94E004C1509F
S1131040F801C28FDF3F81F480858823A1F0C801B5
S113105008960E94B20F882381F0E114F10479F01C
S113106081E0F70180830CC0DF5FF801D58F81E058
S113107007C080E005C081E003C081E001C081E0D9
S1131080DF91CF911F910F91FF90EF9008950F93EF
S11310901F93CF93DF93EC018A8D882349F00E814F
S11310A01F81CE010E94E0041F830E8381E001C0F2
S11310B080E0DF91CF911F910F9108950FB6F894BE
S11310C00F92FC01828D0F900FBE0895FC010FB6A4
S11310D0F8940F92928D0F900FBE838D891B089503
S11310E0FC01828D0895FC01928D81E0911180E0D4
S11310F00895FC01228D81E0938D291380E00895E9
S1131100DC018091060490910704009751F0EAE015
S1131110F4E021E030E0A90180819181009779F425
S113112002C040E050E0FA01EE0FFF1FEE0FFF1F78
S1131130EA5FFB4F71836083B383A28308952F5FBB
S11311403F4F34962830310531F70895AC01809132
S11311500804909109048417950759F0ECE0F4E031
S113116021E030E0B901808191818417950769F409
S113117002C060E070E0FB01EE0FFF1FEE0FFF1FE7
S1131180EA5FFB4F8081918108952F5F3F4F349632
S11311902830310539F780E090E00895AC01809162
S11311A00804909109048417950759F0ECE0F4E0E1
S11311B021E030E0B901808191818417950779F4A9
S11311C002C060E070E0FB01EE0FFF1FEE0FFF1F97
S11311D0EA5FFB4F118210821382128208952F5FFF
S11311E03F4F34962830310529F70895CF93DF9384
S11311F0EC010E94CE08CE010E949202DF91CF91B1
S11312000895809126049091270460E070E048EEF0
S113121053E020E00E944307809195039091960348
S1131220019690939603809395038FEF92E5A7E040
S113123081509040A040E1F700C0000080919303EA
S113124090919403019690939403809393038091D7
S113125026049091270460E070E040E050E020E034
S11312600E942006CECF8F9A809126049091270465
S113127060E070E048EE53E020E00E9443072091D4
S113128095033091960380919303909194032817CA
S1131290390719F082B3805882BB8091260490915B
S11312A0270460E070E040E050E020E00E94200667
S11312B084E690E00E94890ED7CFEF92FF920F93BD
S11312C01F93CF93DF9381E00E94C6069093270477
S11312D080932604C2E6D0E083E399E0BE0144E6AD
S11312E050E020E030E002E010E0EE24FF240E9411
S11312F02A0A81E099E0BE0144E650E020E030E0B3
S113130001E010E00E942A0A0E94C30C80E090E0F1
S1131310DF91CF911F910F91FF90EF900895FC0101
S11313208285938523E08B3F920761F42489358974
S113133083E0293E380741F081E02115310529F089
S113134080E0089580E0089580E00895E091A70387
S1131350F091A8038081882339F48FEF9FEF909355
S11313609B0380939A030895E091A703F091A80347
S11313700580F681E02D0680F781E02D828193813E
S113138090939B0380939A030895EF92FF921F9387
S1131390CF93DF93EC01162FE090A103F090A2030A
S11313A0809197039091980302960E942E038FEFE9
S11313B0CF3FD80769F4112359F0609197037091D6
S11313C098036E5F7F4F8BEF93E00E94DD022FC086
S11313D0CE0DDF1DE0919703F0919803D383C28370
S11313E0CE15DF0568F48091A5039091A603609162
S11313F09703709198036E5F7F4F0E94FC0217C0A1
S11314008091A7039091A80360919703709198032A
S11314106E5F7F4F0E94FC0280919A0390919B0320
S1131420C817D90720F4D0939B03C0939A03DF9184
S1131430CF911F91FF90EF900895CF93DF93EC012C
S11314408F89988D0E949202CE010E949202DF91B0
S1131450CF9108952F923F924F925F926F927F9215
S11314608F929F92AF92BF92DF92EF92FF920F936F
S11314701F93CF93DF933C015B01EA012901D02E36
S11314804701CA010E94F2017C01009709F4EDC0F2
S11314908AE290E00E94F2018C01009781F0FC0145
S11314A0F08EE78A219717012C0E3D1EF5018081ED
S11314B0F801818FF5018081882331F413C0C701BD
S11314C00E9492028FEFD6C0E8016A96D501119668
S11314D081E0FD019D9199939081992319F08F5F8B
S11314E08A30B9F7F80112A2CD2DC53008F0C4E056
S11314F0F801C68BC3A314A2EE24FF246894E1F878
S1131500E00EF11EC7010E94D902C8010C960E9488
S1131510D902F8011187008785E090E08C1B9109BE
S113152095878487138B028B15A216A217A210A687
S113153011A6C101B301A2010E945603F8019183CF
S113154080838114910419F0F401118300830FB690
S1131550F8940F928091A3038F5F8093A3038091EB
S1131560970390919803009709F03FC01093980354
S1131570009397038091A303813009F047C0C0E032
S1131580D0E0CE01880F991F880F991F880F991FEB
S11315908C0F9D1F86559C4F0E94CB022196C5300F
S11315A0D10579F7C7EDD3E0CE010E94CB020F2E0F
S11315B0F0EEAF2EF3E0BF2EF02DC5010E94CB025A
S11315C089EE93E00E94CB0282EF93E00E94CB026B
S11315D08BEF93E00E94CB02D093A803C093A703A0
S11315E0B092A603A092A50311C080919F03882303
S11315F069F4E0919703F09198039689F80186893C
S1131600891720F010939803009397038091A903FE
S11316108F5F8093A903F80186899091A00398179E
S113162010F48093A00390E09C01220F331F220F3B
S1131630331F220F331F820F931F86559C4FB70110
S11316400E94DD020F900FBE80919F03882379F0E2
S1131650E0919703F09198039689F8018689981789
S113166040F40E941C0481E005C08FEF03C081E0B8
S113167001C081E0DF91CF911F910F91FF90EF9016
S1131680DF90BF90AF909F908F907F906F905F900E
S11316904F903F902F9008950F931F93CF93DF9314
S11316A00FB6F8940F92009729F4C0919703D09144
S11316B0980301C0EC018E010E5F1F4FC8010E9408
S11316C02E038C899D89009721F0CE010C960E94EF
S11316D02E038091A9038F5F8093A90380919703C0
S11316E090919803C817D90759F482EF93E0B80191
S11316F00E94DD028091A4038F5F8093A4030AC03B
S11317008091A30381508093A303CE010E941D0AFC
S11317100E94A6090F900FBE80919F03882349F071
S11317208091970390919803C817D90711F40E94E8
S11317301C04DF91CF911F910F9108950FB6F89477
S11317400F92009729F4E0919703F091980301C058
S1131750FC010F900FBE86890895009729F4E0914B
S11317609703F091980301C0FC0186890895EF92D4
S1131770FF921F93CF93DF93653008F064E00FB6B8
S1131780F8940F92009729F4C0919703D09198038D
S113179001C0EC012BA1261709F461C0261788F4B7
S11317A08091970390919803C817D907A1F0E0910D
S11317B09703F091980311E08689681768F410E0A4
S11317C00BC0809197039091980311E0C817D90733
S11317D019F010E001C010E08E89281709F46E8B0F
S11317E06BA32C853D85332334F025E030E0261BA4
S11317F031093D872C8790E09C01220F331F220F73
S1131800331F220F331F820F931F86559C4F2A8547
S11318103B8528173907F9F4EE24FF246894E1F88E
S1131820EC0EFD1EC7010E942E038E899091A00329
S1131830981710F48093A00390E09C01220F331FAB
S1131840220F331F220F331F820F931F86559C4F85
S1131850B7010E94DD02112311F00E941C040F90B5
S11318600FBEDF91CF911F91FF90EF9008950F93DA
S11318701F93CF93DF93EC010097B9F18091970305
S113188090919803C817D90781F10FB6F8940F9275
S1131890CE010E948F09882331F18E010E5F1F4F04
S11318A0C8010E942E038E899091A003981710F40A
S11318B08093A00390E09C01220F331F220F331F5B
S11318C0220F331F820F931F86559C4FB8010E942D
S11318D0DD02E0919703F09198039E898689981719
S11318E010F00E941C040F900FBEDF91CF911F9146
S11318F00F910895EF92FF921F93CF93DF93EC0122
S11319000E948F098823B9F180919903882351F5A6
S1131910E0919703F091980311E09E8986899817C6
S113192008F410E0EE24FF246894E1F8EC0EFD1EA8
S1131930C7010E942E038E899091A003981710F47A
S11319408093A00390E09C01220F331F220F331FCA
S1131950220F331F820F931F86559C4FB7010E949D
S1131960DD020AC0BE01645F7F4F89EE93E00E94EE
S1131970DD0210E001C010E0812FDF91CF911F91B3
S1131980FF90EF900895EF92FF920F9381E59EE010
S113199064E670E048EC50E020E030E000E00F2E18
S11319A0F4E0EF2EF4E0FF2EF02D0E942A0A81309D
S11319B081F4F8948FEF9FEF90939B0380939A03A5
S11319C081E080939F031092A2031092A1030E94CE
S11319D0E6030F91FF90EF900895F89410929F03FF
S11319E00E941B040895809199038F5F809399034B
S11319F008950FB6F8940F928091A1039091A203D9
S1131A000F900FBE08958091A1039091A2030895B1
S1131A108091A3030895009721F4809197039091F6
S1131A20980349960895CF92DF92EF92FF920F9315
S1131A301F93CF93DF9380919903882309F098C073
S1131A40C090A103D090A2030894C11CD11CD092D1
S1131A50A203C092A103C114D104B9F48091A703D5
S1131A609091A8032091A5033091A6033093A80375
S1131A702093A7039093A6038093A50380919C03CE
S1131A808F5F80939C030E94A60980919A03909192
S1131A909B03C816D90620F4FF2454C0FE2C03C0AF
S1131AA0FF24EE24E394E091A703F091A80380813E
S1131AB0882339F48FEF9FEF90939B0380939A03CD
S1131AC041C0E091A703F091A8030580F681E02DC1
S1131AD0C681D7818A819B81C816D90628F4909340
S1131AE09B0380939A032EC08E010E5F1F4FC80183
S1131AF00E942E038C899D89009721F0CE010C96BB
S1131B000E942E038E899091A003981710F480935D
S1131B10A00390E09C01220F331F220F331F220FDA
S1131B20331F820F931F86559C4FB8010E94DD021C
S1131B30E0919703F09198039E898689981708F09D
S1131B40ADCFB1CFE0919703F0919803868990E0EF
S1131B50FC01EE0FFF1FEE0FFF1FEE0FFF1F8E0F96
S1131B609F1FFC01E655FC4F8081823040F409C080
S1131B7080919E038F5F80939E03FF2402C0FF2405
S1131B80F39480919D03882311F0FF24F3948F2D07
S1131B90DF91CF911F910F91FF90EF90DF90CF9045
S1131BA00895DF92EF92FF920F931F93CF93DF93E9
S1131BB00FB6F8940F928091990381508093990302
S1131BC080919903882309F05FC08091A30388233F
S1131BD091F55DC0E091EE03F091EF03C681D781EA
S1131BE0CE010C960E942E038E010E5F1F4FC8017A
S1131BF00E942E038E899091A003981710F480936D
S1131C00A00390E09C01220F331F220F331F220FE9
S1131C10331F820F931F86559C4FB8010E94DD022B
S1131C20E0919703F09198039E898689981768F04C
S1131C30D0929D030AC0C0E0D0E00F2EF9EEEF2E43
S1131C40F3E0FF2EF02DDD24D394F7018081882367
S1131C5009F6209711F00E94A609C0919E03CC2397
S1131C6059F001E00E94130D882311F000939D03A5
S1131C70C150C1F710929E0380919D03882331F0D7
S1131C800E941C0481E003C080E001C080E00F904A
S1131C900FBEDF91CF911F910F91FF90EF90DF90D6
S1131CA0089502EF13E00F2EFAEAEF2EF3E0FF2E71
S1131CB0F02D24C00E94F30CF801C0810E94D10DC4
S1131CC0CC23E1F00FB6F8940F92E091F703F09172
S1131CD0F803C681D781CE0102960E942E0380911B
S1131CE0A30381508093A3038091A4038150809324
S1131CF0A4030F900FBECE010E941D0A8091A4037D
S1131D008823C1F6F70180818230C0F30E941C044D
S1131D10F5CFCF93DF93EC01009751F00E94F30CC1
S1131D20CE0160E00E94C5090E94D10D882311F400
S1131D300E941C04DF91CF9108950F931F93CF93BA
S1131D40DF938C01EB010E94F30C8091A10390912D
S1131D50A203F80120813181C20FD31F8217930798
S1131D6048F4C217D307F8F4D183C0838C179D07B6
S1131D7078F407C0C217D30790F08C179D0778F04A
S1131D8012C09E01281B390BC90160E00E94C509DD
S1131D900E94D10D882359F40E941C0408C0F80144
S1131DA0D183C083EECFF801D183C083F1CFDF911B
S1131DB0CF911F910F91089580919903882321F069
S1131DC081E080939D03089510929D032091A003C8
S1131DD0822F90E0FC01EE0FFF1FEE0FFF1FEE0FAE
S1131DE0FF1FE80FF91FE655FC4F3081332389F4B8
S1131DF02150822F90E0FC01EE0FFF1FEE0FFF1F1A
S1131E00EE0FFF1FE80FF91FE655FC4F3081332317
S1131E1079F3DC01AA0FBB1FAA0FBB1FAA0FBB1FBC
S1131E208A0F9B1FDC01A655BC4F1196ED91FC91C6
S1131E3012970280F381E02D1296FC93EE93119792
S1131E40CD010396E817F90731F482819381129644
S1131E509C938E9311971196ED91FC911297868124
S1131E60978190939803809397032093A0030895F8
S1131E700F931F93CF93DF930FB6F8940F920097AD
S1131E8029F4009197031091980301C08C01E80193
S1131E902296CE010E942E03F80184899589009729
S1131EA021F0C8010C960E942E038BEF93E0BE0133
S1131EB00E94DD020F900FBE80919F03882339F0AA
S1131EC00FB6F8940F920E94A6090F900FBE80914E
S1131ED097039091980308171907A1F480919F0321
S1131EE0882319F00E941C040DC08091A3039091D3
S1131EF0FB03981729F4109298031092970302C0D9
S1131F000E94DC0EDF91CF911F910F910895CF9322
S1131F10DF93EB016091970370919803645F7F4FA7
S1131F200E94FC02CE0161E00E94C509DF91CF91BD
S1131F300895CF93DF93EA01E0919703F09198031A
S1131F407068758764876091970370919803645FE4
S1131F507F4F0E94DD02CE0161E00E94C509DF913E
S1131F60CF9108950F931F93CF93DF93DC011596C0
S1131F70ED91FC91169706811781E8012C96CE010C
S1131F800E942E03809199038823E9F4E8012296A4
S1131F90CE010E942E03F80186899091A003981720
S1131FA010F48093A00390E09C01220F331F220FB2
S1131FB0331F220F331F820F931F86559C4FBE0180
S1131FC00E94DD0205C089EE93E0BE010E94DD029D
S1131FD0E0919703F0919803D80156969C915697F7
S1131FE08689891720F481E080939D0301C080E0F5
S1131FF0DF91CF911F910F9108950F931F93CF936A
S1132000DF937068FC0171836083C681D7810E946D
S11320102E038E010E5F1F4FC8010E942E038E896E
S11320209091A003981710F48093A00390E09C0172
S1132030220F331F220F331F220F331F820F931FD0
S113204086559C4FB8010E94DD02E0919703F09100
S113205098039E898689891720F481E080939D03E3
S113206001C080E0DF91CF911F910F910895FC0191
S113207080919C0380838091A1039091A203928319
S113208081830895FC01DB010FB6F8940F926091EF
S1132090A1037091A2034D915C9111978FEF4F3F73
S11320A05807E9F080919C039081981729F0818169
S11320B0928168177907A8F4818192819B01281B7A
S11320C0390B2417350778F4861B970B840F951F5B
S11320D08D939C93CF010E94371080E005C080E06F
S11320E003C081E001C081E00F900FBE089581E03C
S11320F080939D0308958091970390919803089588
S11321000F931F93CF93DF93EC01009709F451C011
S11321108E89E0919703F09198039689891708F0C6
S113212048C02C853D8533235CF0E0919703F09102
S11321309803968925E030E0291B31093D872C87D7
S113214090E09C01220F331F220F331F220F331FF5
S1132150820F931F86559C4F2A853B852817390784
S113216011F58E010E5F1F4FC8010E942E03E091EE
S11321709703F091980386898E8B9091A00398170A
S113218010F48093A00390E09C01220F331F220FD0
S1132190331F220F331F820F931F86559C4FB801A4
S11321A00E94DD0206C0E0919703F09198038689AE
S11321B08E8BDF91CF911F910F9108950F931F93F1
S11321C0CF93DF93EC01009781F18CA181508CA314
S11321D02E899BA1291759F1882359F58E010E5F89
S11321E01F4FC8010E942E034BA14E8B242F30E0B9
S11321F085E090E0821B930B9D878C878091A003E0
S1132200841710F44093A003C901880F991F880F05
S1132210991F880F991F280F391FC90186559C4F94
S1132220B8010E94DD0281E005C080E003C080E0C7
S113223001C080E0DF91CF911F910F910895E0914B
S11322409703F091980384859585E0919703F09125
S11322509803A0919703B091980356964C91569782
S113226025E030E0241B31093587248708958091C7
S1132270970390919803009739F0E0919703F091B8
S1132280980384A18F5F84A380919703909198030E
S113229008950F931F93CF93C82F0FB6F8940F92FE
S11322A0E0919703F091980385A196A1A7A1B0A509
S11322B00097A105B10579F4E0919703F091980393
S11322C081E081A76115710531F0CB0161E00E94C5
S11322D0C5090E941C040F900FBE0FB6F8940F920C
S11322E0E0919703F091980305A116A127A130A5C9
S11322F00115110521053105C1F0CC2349F0E09108
S11323009703F091980315A216A217A210A60DC068
S1132310E0919703F0919803D901C8010197A109AD
S1132320B10985A396A3A7A3B0A7E0919703F09161
S1132330980311A60F900FBE602F712F822F932F39
S1132340CF911F910F9108958F929F92AF92BF9258
S1132350EF92FF920F931F93DC01CB0149015A01C5
S11323600FB6F8940F92E0919703F091980321A58A
S1132370223019F1E0919703F091980345A156A1F9
S113238067A170A580959095A095B0958423952319
S1132390A623B72385A396A3A7A3B0A7E091970389
S11323A0F091980381E081A7E114F10431F0C701B1
S11323B061E00E94C5090E941C040F900FBE0FB675
S11323C0F8940F920115110569F0E0919703F091CB
S11323D0980385A196A1A7A1B0A5F8018083918354
S11323E0A283B383E0919703F091980381A5813090
S11323F0B1F0E0919703F091980385A196A1A7A16C
S1132400B0A580949094A094B09488229922AA2292
S1132410BB2285A296A2A7A2B0A681E001C080E05B
S1132420E0919703F091980311A60F900FBE1F91AE
S11324300F91FF90EF90BF90AF909F908F90089571
S11324400F931F93CF93DF93EC010FB6F8940F9281
S11324500115110549F08DA19EA1AFA1B8A5F80100
S113246080839183A283B38339A582E089A7223034
S1132470B9F0233018F4213051F505C02330E1F0D0
S1132480243029F51EC08DA19EA1AFA1B8A5482B6B
S1132490592B6A2B7B2B4DA35EA36FA378A717C080
S11324A08DA19EA1AFA1B8A50196A11DB11D8DA3BB
S11324B09EA3AFA3B8A70BC04DA35EA36FA378A739
S11324C006C0323071F14DA35EA36FA378A73130FB
S11324D051F58E010E5F1F4FC8010E942E038E8995
S11324E09091A003981710F48093A00390E09C01AE
S11324F0220F331F220F331F220F331F820F931F0C
S113250086559C4FB8010E94DD02E0919703F0913B
S113251098039E898689891740F40E941C0481E0EF
S113252005C080E003C081E001C081E00F900FBED0
S1132530DF91CF911F910F910895EF92FF920F9326
S11325401F93CF93DF93EC010115110549F08DA181
S11325509EA1AFA1B8A5F80180839183A283B38320
S113256039A582E089A72230B9F0233018F421304C
S113257059F505C02330E1F0243031F51EC08DA19A
S11325809EA1AFA1B8A5842B952BA62BB72B8DA309
S11325909EA3AFA3B8A718C08DA19EA1AFA1B8A553
S11325A00196A11DB11D8DA39EA3AFA3B8A70CC016
S11325B04DA35EA36FA378A707C0323009F441C0CE
S11325C04DA35EA36FA378A73130E9F580919903F9
S11325D08823E9F48E010E5F1F4FC8010E942E0369
S11325E08E899091A003981710F48093A00390E033
S11325F09C01220F331F220F331F220F331F820F20
S1132600931F86559C4FB8010E94DD0207C0BE018E
S1132610645F7F4F89EE93E00E94DD02E0919703AF
S1132620F09198039E898689891778F4E114F1045E
S113263021F081E0F701808309C081E080939D034C
S113264005C080E003C081E001C081E0DF91CF914B
S11326501F910F91FF90EF900895EF92FF920F93C7
S11326601F93CF93DF93EC018B0129A582E089A707
S11326708DA19EA1AFA1B8A50196A11DB11D8DA3E9
S11326809EA3AFA3B8A72130E9F5809199038823CD
S113269001F5EE24FF246894E1F8EC0EFD1EC70159
S11326A00E942E038E899091A003981710F48093B2
S11326B0A00390E09C01220F331F220F331F220F2F
S11326C0331F820F931F86559C4FB7010E94DD0272
S11326D007C0BE01645F7F4F89EE93E00E94DD0274
S11326E0E0919703F09198039E898689891750F4A5
S11326F00115110521F081E0F801808303C081E018
S113270080939D03DF91CF911F910F91FF90EF90E4
S11327100895009729F4E0919703F091980301C07C
S1132720FC010FB6F8940F9281A5823019F411A61A
S113273081E001C080E00F900FBE0895FB01DC0131
S113274002C001900D9241505040D8F70895F8947A
S1052750FFCFB5
S10D27521F03200049444C45000019
S9030000FC
